{
  "contractName": "AdminSensorManagement",
  "abi": [
    {
      "inputs": [],
      "stateMutability": "nonpayable",
      "type": "constructor"
    },
    {
      "anonymous": false,
      "inputs": [
        {
          "indexed": false,
          "internalType": "address",
          "name": "owner",
          "type": "address"
        }
      ],
      "name": "OwnerAdded",
      "type": "event"
    },
    {
      "anonymous": false,
      "inputs": [
        {
          "indexed": false,
          "internalType": "address",
          "name": "owner",
          "type": "address"
        }
      ],
      "name": "OwnerRemoved",
      "type": "event"
    },
    {
      "anonymous": false,
      "inputs": [
        {
          "indexed": false,
          "internalType": "address",
          "name": "sensor",
          "type": "address"
        }
      ],
      "name": "SensorAdded",
      "type": "event"
    },
    {
      "anonymous": false,
      "inputs": [
        {
          "indexed": false,
          "internalType": "address",
          "name": "sensor",
          "type": "address"
        }
      ],
      "name": "SensorRemoved",
      "type": "event"
    },
    {
      "inputs": [],
      "name": "admin",
      "outputs": [
        {
          "internalType": "address",
          "name": "",
          "type": "address"
        }
      ],
      "stateMutability": "view",
      "type": "function",
      "constant": true
    },
    {
      "inputs": [
        {
          "internalType": "address",
          "name": "",
          "type": "address"
        }
      ],
      "name": "allowedOwners",
      "outputs": [
        {
          "internalType": "bool",
          "name": "",
          "type": "bool"
        }
      ],
      "stateMutability": "view",
      "type": "function",
      "constant": true
    },
    {
      "inputs": [
        {
          "internalType": "address",
          "name": "",
          "type": "address"
        }
      ],
      "name": "allowedSensors",
      "outputs": [
        {
          "internalType": "bool",
          "name": "",
          "type": "bool"
        }
      ],
      "stateMutability": "view",
      "type": "function",
      "constant": true
    },
    {
      "inputs": [
        {
          "internalType": "address",
          "name": "sensor",
          "type": "address"
        }
      ],
      "name": "addSensor",
      "outputs": [],
      "stateMutability": "nonpayable",
      "type": "function"
    },
    {
      "inputs": [
        {
          "internalType": "address",
          "name": "sensor",
          "type": "address"
        }
      ],
      "name": "removeSensor",
      "outputs": [],
      "stateMutability": "nonpayable",
      "type": "function"
    },
    {
      "inputs": [
        {
          "internalType": "address",
          "name": "owner",
          "type": "address"
        }
      ],
      "name": "addOwner",
      "outputs": [],
      "stateMutability": "nonpayable",
      "type": "function"
    },
    {
      "inputs": [
        {
          "internalType": "address",
          "name": "owner",
          "type": "address"
        }
      ],
      "name": "removeOwner",
      "outputs": [],
      "stateMutability": "nonpayable",
      "type": "function"
    }
  ],
  "bytecode": "0x608060405234801561001057600080fd5b50336000806101000a81548173ffffffffffffffffffffffffffffffffffffffff021916908373ffffffffffffffffffffffffffffffffffffffff160217905550610bfe806100606000396000f3fe608060405234801561001057600080fd5b506004361061007d5760003560e01c8063a2711f051161005b578063a2711f05146100ea578063a2e07dc114610106578063b44bc23a14610122578063f851a440146101525761007d565b8063173825d9146100825780637065cb481461009e5780638fbaecd7146100ba575b600080fd5b61009c600480360381019061009791906108e8565b610170565b005b6100b860048036038101906100b391906108e8565b61031c565b005b6100d460048036038101906100cf91906108e8565b6104c9565b6040516100e19190610930565b60405180910390f35b61010460048036038101906100ff91906108e8565b6104e9565b005b610120600480360381019061011b91906108e8565b610695565b005b61013c600480360381019061013791906108e8565b610841565b6040516101499190610930565b60405180910390f35b61015a610861565b604051610167919061095a565b60405180910390f35b60008054906101000a900473ffffffffffffffffffffffffffffffffffffffff1673ffffffffffffffffffffffffffffffffffffffff163373ffffffffffffffffffffffffffffffffffffffff16146101fe576040517f08c379a00000000000000000000000000000000000000000000000000000000081526004016101f5906109f8565b60405180910390fd5b600260008273ffffffffffffffffffffffffffffffffffffffff1673ffffffffffffffffffffffffffffffffffffffff16815260200190815260200160002060009054906101000a900460ff1661028a576040517f08c379a000000000000000000000000000000000000000000000000000000000815260040161028190610a64565b60405180910390fd5b6000600260008373ffffffffffffffffffffffffffffffffffffffff1673ffffffffffffffffffffffffffffffffffffffff16815260200190815260200160002060006101000a81548160ff0219169083151502179055507f58619076adf5bb0943d100ef88d52d7c3fd691b19d3a9071b555b651fbf418da81604051610311919061095a565b60405180910390a150565b60008054906101000a900473ffffffffffffffffffffffffffffffffffffffff1673ffffffffffffffffffffffffffffffffffffffff163373ffffffffffffffffffffffffffffffffffffffff16146103aa576040517f08c379a00000000000000000000000000000000000000000000000000000000081526004016103a1906109f8565b60405180910390fd5b600260008273ffffffffffffffffffffffffffffffffffffffff1673ffffffffffffffffffffffffffffffffffffffff16815260200190815260200160002060009054906101000a900460ff1615610437576040517f08c379a000000000000000000000000000000000000000000000000000000000815260040161042e90610ad0565b60405180910390fd5b6001600260008373ffffffffffffffffffffffffffffffffffffffff1673ffffffffffffffffffffffffffffffffffffffff16815260200190815260200160002060006101000a81548160ff0219169083151502179055507f994a936646fe87ffe4f1e469d3d6aa417d6b855598397f323de5b449f765f0c3816040516104be919061095a565b60405180910390a150565b60016020528060005260406000206000915054906101000a900460ff1681565b60008054906101000a900473ffffffffffffffffffffffffffffffffffffffff1673ffffffffffffffffffffffffffffffffffffffff163373ffffffffffffffffffffffffffffffffffffffff1614610577576040517f08c379a000000000000000000000000000000000000000000000000000000000815260040161056e906109f8565b60405180910390fd5b600160008273ffffffffffffffffffffffffffffffffffffffff1673ffffffffffffffffffffffffffffffffffffffff16815260200190815260200160002060009054906101000a900460ff16610603576040517f08c379a00000000000000000000000000000000000000000000000000000000081526004016105fa90610b3c565b60405180910390fd5b6000600160008373ffffffffffffffffffffffffffffffffffffffff1673ffffffffffffffffffffffffffffffffffffffff16815260200190815260200160002060006101000a81548160ff0219169083151502179055507f2526666d62ae006c5c461237b2462b2d3ceaa794070641df39155c9b08338c4f8160405161068a919061095a565b60405180910390a150565b60008054906101000a900473ffffffffffffffffffffffffffffffffffffffff1673ffffffffffffffffffffffffffffffffffffffff163373ffffffffffffffffffffffffffffffffffffffff1614610723576040517f08c379a000000000000000000000000000000000000000000000000000000000815260040161071a906109f8565b60405180910390fd5b600160008273ffffffffffffffffffffffffffffffffffffffff1673ffffffffffffffffffffffffffffffffffffffff16815260200190815260200160002060009054906101000a900460ff16156107b0576040517f08c379a00000000000000000000000000000000000000000000000000000000081526004016107a790610ba8565b60405180910390fd5b60018060008373ffffffffffffffffffffffffffffffffffffffff1673ffffffffffffffffffffffffffffffffffffffff16815260200190815260200160002060006101000a81548160ff0219169083151502179055507f532bd93eba5653fc68729dfd768c5f1ad14e5900d8e436d2628b22198eed105981604051610836919061095a565b60405180910390a150565b60026020528060005260406000206000915054906101000a900460ff1681565b60008054906101000a900473ffffffffffffffffffffffffffffffffffffffff1681565b600080fd5b600073ffffffffffffffffffffffffffffffffffffffff82169050919050565b60006108b58261088a565b9050919050565b6108c5816108aa565b81146108d057600080fd5b50565b6000813590506108e2816108bc565b92915050565b6000602082840312156108fe576108fd610885565b5b600061090c848285016108d3565b91505092915050565b60008115159050919050565b61092a81610915565b82525050565b60006020820190506109456000830184610921565b92915050565b610954816108aa565b82525050565b600060208201905061096f600083018461094b565b92915050565b600082825260208201905092915050565b7f4f6e6c792061646d696e2063616e2063616c6c20746869732066756e6374696f60008201527f6e00000000000000000000000000000000000000000000000000000000000000602082015250565b60006109e2602183610975565b91506109ed82610986565b604082019050919050565b60006020820190508181036000830152610a11816109d5565b9050919050565b7f4f776e6572206e6f7420666f756e640000000000000000000000000000000000600082015250565b6000610a4e600f83610975565b9150610a5982610a18565b602082019050919050565b60006020820190508181036000830152610a7d81610a41565b9050919050565b7f4f776e657220616c726561647920616464656400000000000000000000000000600082015250565b6000610aba601383610975565b9150610ac582610a84565b602082019050919050565b60006020820190508181036000830152610ae981610aad565b9050919050565b7f53656e736f72206e6f7420666f756e6400000000000000000000000000000000600082015250565b6000610b26601083610975565b9150610b3182610af0565b602082019050919050565b60006020820190508181036000830152610b5581610b19565b9050919050565b7f53656e736f7220616c7265616479206164646564000000000000000000000000600082015250565b6000610b92601483610975565b9150610b9d82610b5c565b602082019050919050565b60006020820190508181036000830152610bc181610b85565b905091905056fea2646970667358221220816867134e7013ef29b5336ae17e710abc5adb22bcd1b3d30a44df6d9d0427fd64736f6c63430008150033",
  "immutableReferences": {},
  "source": "// SPDX-License-Identifier: MIT\npragma solidity >=0.6.0 <0.9.0;\n\ncontract AdminSensorManagement {\n    address public admin;\n\n    // Mapping for allowed sensors and owners\n    mapping(address => bool) public allowedSensors;\n    mapping(address => bool) public allowedOwners;\n\n    // Events\n    event SensorAdded(address sensor);\n    event OwnerAdded(address owner);\n    event SensorRemoved(address sensor);\n    event OwnerRemoved(address owner);\n\n    constructor() {\n        admin = msg.sender; // Admin is the deployer of the contract\n    }\n\n    modifier onlyAdmin() {\n        require(msg.sender == admin, \"Only admin can call this function\");\n        _;\n    }\n\n    // Function for admin to add allowed sensors\n    function addSensor(address sensor) public onlyAdmin {\n        require(!allowedSensors[sensor], \"Sensor already added\");\n        allowedSensors[sensor] = true;\n        emit SensorAdded(sensor);\n    }\n\n    // Function for admin to remove allowed sensors\n    function removeSensor(address sensor) public onlyAdmin {\n        require(allowedSensors[sensor], \"Sensor not found\");\n        allowedSensors[sensor] = false;\n        emit SensorRemoved(sensor);\n    }\n\n    // Function for admin to add allowed owners\n    function addOwner(address owner) public onlyAdmin {\n        require(!allowedOwners[owner], \"Owner already added\");\n        allowedOwners[owner] = true;\n        emit OwnerAdded(owner);\n    }\n\n    // Function for admin to remove allowed owners\n    function removeOwner(address owner) public onlyAdmin {\n        require(allowedOwners[owner], \"Owner not found\");\n        allowedOwners[owner] = false;\n        emit OwnerRemoved(owner);\n    }\n}\n\n",
  "sourcePath": "/home/speedy/test-net/contracts/contracts/AdminSensorManagement.sol",
  "compiler": {
    "name": "solc",
    "version": "0.8.21+commit.d9974bed.Emscripten.clang"
  },
  "schemaVersion": "3.4.16",
  "updatedAt": "2025-01-02T12:08:36.922Z",
  "networkType": "ethereum",
  "devdoc": {
    "kind": "dev",
    "methods": {},
    "version": 1
  },
  "userdoc": {
    "kind": "user",
    "methods": {},
    "version": 1
  }
}