{
  "contractName": "DeviceOwner",
  "abi": [
    {
      "anonymous": false,
      "inputs": [
        {
          "indexed": true,
          "internalType": "address",
          "name": "patient",
          "type": "address"
        },
        {
          "indexed": true,
          "internalType": "address",
          "name": "sensor",
          "type": "address"
        },
        {
          "indexed": false,
          "internalType": "string",
          "name": "data",
          "type": "string"
        }
      ],
      "name": "DataPushed",
      "type": "event"
    },
    {
      "anonymous": false,
      "inputs": [
        {
          "indexed": true,
          "internalType": "address",
          "name": "patient",
          "type": "address"
        },
        {
          "indexed": true,
          "internalType": "address",
          "name": "sensor",
          "type": "address"
        }
      ],
      "name": "SensorAdded",
      "type": "event"
    },
    {
      "anonymous": false,
      "inputs": [
        {
          "indexed": true,
          "internalType": "address",
          "name": "patient",
          "type": "address"
        },
        {
          "indexed": true,
          "internalType": "address",
          "name": "sensor",
          "type": "address"
        }
      ],
      "name": "SensorRevoked",
      "type": "event"
    },
    {
      "inputs": [
        {
          "internalType": "address",
          "name": "",
          "type": "address"
        }
      ],
      "name": "patientOwners",
      "outputs": [
        {
          "internalType": "address",
          "name": "",
          "type": "address"
        }
      ],
      "stateMutability": "view",
      "type": "function"
    },
    {
      "inputs": [
        {
          "internalType": "address",
          "name": "",
          "type": "address"
        },
        {
          "internalType": "address",
          "name": "",
          "type": "address"
        }
      ],
      "name": "patientSensors",
      "outputs": [
        {
          "internalType": "address",
          "name": "owner",
          "type": "address"
        },
        {
          "internalType": "bool",
          "name": "isActive",
          "type": "bool"
        }
      ],
      "stateMutability": "view",
      "type": "function"
    },
    {
      "inputs": [
        {
          "internalType": "address",
          "name": "patient",
          "type": "address"
        },
        {
          "internalType": "address",
          "name": "owner",
          "type": "address"
        }
      ],
      "name": "setPatientOwner",
      "outputs": [],
      "stateMutability": "nonpayable",
      "type": "function"
    },
    {
      "inputs": [
        {
          "internalType": "address",
          "name": "patient",
          "type": "address"
        },
        {
          "internalType": "address",
          "name": "sensor",
          "type": "address"
        }
      ],
      "name": "addSensorForPatient",
      "outputs": [],
      "stateMutability": "nonpayable",
      "type": "function"
    },
    {
      "inputs": [
        {
          "internalType": "address",
          "name": "patient",
          "type": "address"
        },
        {
          "internalType": "address",
          "name": "sensor",
          "type": "address"
        }
      ],
      "name": "revokeSensorForPatient",
      "outputs": [],
      "stateMutability": "nonpayable",
      "type": "function"
    },
    {
      "inputs": [
        {
          "internalType": "address",
          "name": "patient",
          "type": "address"
        },
        {
          "internalType": "string",
          "name": "data",
          "type": "string"
        }
      ],
      "name": "pushDataForPatient",
      "outputs": [],
      "stateMutability": "nonpayable",
      "type": "function"
    }
  ],
  "bytecode": "0x608060405234801561001057600080fd5b506110d5806100206000396000f3fe608060405234801561001057600080fd5b50600436106100625760003560e01c8063491accd7146100675780636ba70e571461008357806370c490681461009f578063b991fc2b146100cf578063de999dd914610100578063e4a7b4581461011c575b600080fd5b610081600480360381019061007c9190610aad565b610138565b005b61009d60048036038101906100989190610aad565b61040f565b005b6100b960048036038101906100b49190610aed565b61055f565b6040516100c69190610b29565b60405180910390f35b6100e960048036038101906100e49190610aad565b610592565b6040516100f7929190610b5f565b60405180910390f35b61011a60048036038101906101159190610aad565b6105f0565b005b61013660048036038101906101319190610cce565b610900565b005b81813373ffffffffffffffffffffffffffffffffffffffff166000808473ffffffffffffffffffffffffffffffffffffffff1673ffffffffffffffffffffffffffffffffffffffff16815260200190815260200160002060008373ffffffffffffffffffffffffffffffffffffffff1673ffffffffffffffffffffffffffffffffffffffff16815260200190815260200160002060000160009054906101000a900473ffffffffffffffffffffffffffffffffffffffff1673ffffffffffffffffffffffffffffffffffffffff1614610246576040517f08c379a000000000000000000000000000000000000000000000000000000000815260040161023d90610d87565b60405180910390fd5b600115156000808673ffffffffffffffffffffffffffffffffffffffff1673ffffffffffffffffffffffffffffffffffffffff16815260200190815260200160002060008573ffffffffffffffffffffffffffffffffffffffff1673ffffffffffffffffffffffffffffffffffffffff16815260200190815260200160002060000160149054906101000a900460ff16151514610318576040517f08c379a000000000000000000000000000000000000000000000000000000000815260040161030f90610df3565b60405180910390fd5b60008060008673ffffffffffffffffffffffffffffffffffffffff1673ffffffffffffffffffffffffffffffffffffffff16815260200190815260200160002060008573ffffffffffffffffffffffffffffffffffffffff1673ffffffffffffffffffffffffffffffffffffffff16815260200190815260200160002060000160146101000a81548160ff0219169083151502179055508273ffffffffffffffffffffffffffffffffffffffff168473ffffffffffffffffffffffffffffffffffffffff167f99afca24ff62499db2f8662f6c1d459f3d559cf04541c58f25432c1906bf810560405160405180910390a350505050565b600073ffffffffffffffffffffffffffffffffffffffff16600160008473ffffffffffffffffffffffffffffffffffffffff1673ffffffffffffffffffffffffffffffffffffffff16815260200190815260200160002060009054906101000a900473ffffffffffffffffffffffffffffffffffffffff1673ffffffffffffffffffffffffffffffffffffffff16146104dd576040517f08c379a00000000000000000000000000000000000000000000000000000000081526004016104d490610e5f565b60405180910390fd5b80600160008473ffffffffffffffffffffffffffffffffffffffff1673ffffffffffffffffffffffffffffffffffffffff16815260200190815260200160002060006101000a81548173ffffffffffffffffffffffffffffffffffffffff021916908373ffffffffffffffffffffffffffffffffffffffff1602179055505050565b60016020528060005260406000206000915054906101000a900473ffffffffffffffffffffffffffffffffffffffff1681565b6000602052816000526040600020602052806000526040600020600091509150508060000160009054906101000a900473ffffffffffffffffffffffffffffffffffffffff16908060000160149054906101000a900460ff16905082565b3373ffffffffffffffffffffffffffffffffffffffff16600160008473ffffffffffffffffffffffffffffffffffffffff1673ffffffffffffffffffffffffffffffffffffffff16815260200190815260200160002060009054906101000a900473ffffffffffffffffffffffffffffffffffffffff1673ffffffffffffffffffffffffffffffffffffffff16146106bd576040517f08c379a00000000000000000000000000000000000000000000000000000000081526004016106b490610ef1565b60405180910390fd5b600015156000808473ffffffffffffffffffffffffffffffffffffffff1673ffffffffffffffffffffffffffffffffffffffff16815260200190815260200160002060008373ffffffffffffffffffffffffffffffffffffffff1673ffffffffffffffffffffffffffffffffffffffff16815260200190815260200160002060000160149054906101000a900460ff1615151461078f576040517f08c379a000000000000000000000000000000000000000000000000000000000815260040161078690610f5d565b60405180910390fd5b60405180604001604052803373ffffffffffffffffffffffffffffffffffffffff168152602001600115158152506000808473ffffffffffffffffffffffffffffffffffffffff1673ffffffffffffffffffffffffffffffffffffffff16815260200190815260200160002060008373ffffffffffffffffffffffffffffffffffffffff1673ffffffffffffffffffffffffffffffffffffffff16815260200190815260200160002060008201518160000160006101000a81548173ffffffffffffffffffffffffffffffffffffffff021916908373ffffffffffffffffffffffffffffffffffffffff16021790555060208201518160000160146101000a81548160ff0219169083151502179055509050508073ffffffffffffffffffffffffffffffffffffffff168273ffffffffffffffffffffffffffffffffffffffff167f45959c3a1badec7965c8d52d1968aaca6e46ae52ad27006cb6cafe7fae5813a660405160405180910390a35050565b600115156000808473ffffffffffffffffffffffffffffffffffffffff1673ffffffffffffffffffffffffffffffffffffffff16815260200190815260200160002060003373ffffffffffffffffffffffffffffffffffffffff1673ffffffffffffffffffffffffffffffffffffffff16815260200190815260200160002060000160149054906101000a900460ff161515146109d2576040517f08c379a00000000000000000000000000000000000000000000000000000000081526004016109c990610fef565b60405180910390fd5b3373ffffffffffffffffffffffffffffffffffffffff168273ffffffffffffffffffffffffffffffffffffffff167f7b3f454962ee5a7895f4e2c247a9e1a232dc15fe73981aa3157e8b29765afcff83604051610a2f919061107d565b60405180910390a35050565b6000604051905090565b600080fd5b600080fd5b600073ffffffffffffffffffffffffffffffffffffffff82169050919050565b6000610a7a82610a4f565b9050919050565b610a8a81610a6f565b8114610a9557600080fd5b50565b600081359050610aa781610a81565b92915050565b60008060408385031215610ac457610ac3610a45565b5b6000610ad285828601610a98565b9250506020610ae385828601610a98565b9150509250929050565b600060208284031215610b0357610b02610a45565b5b6000610b1184828501610a98565b91505092915050565b610b2381610a6f565b82525050565b6000602082019050610b3e6000830184610b1a565b92915050565b60008115159050919050565b610b5981610b44565b82525050565b6000604082019050610b746000830185610b1a565b610b816020830184610b50565b9392505050565b600080fd5b600080fd5b6000601f19601f8301169050919050565b7f4e487b7100000000000000000000000000000000000000000000000000000000600052604160045260246000fd5b610bdb82610b92565b810181811067ffffffffffffffff82111715610bfa57610bf9610ba3565b5b80604052505050565b6000610c0d610a3b565b9050610c198282610bd2565b919050565b600067ffffffffffffffff821115610c3957610c38610ba3565b5b610c4282610b92565b9050602081019050919050565b82818337600083830152505050565b6000610c71610c6c84610c1e565b610c03565b905082815260208101848484011115610c8d57610c8c610b8d565b5b610c98848285610c4f565b509392505050565b600082601f830112610cb557610cb4610b88565b5b8135610cc5848260208601610c5e565b91505092915050565b60008060408385031215610ce557610ce4610a45565b5b6000610cf385828601610a98565b925050602083013567ffffffffffffffff811115610d1457610d13610a4a565b5b610d2085828601610ca0565b9150509250929050565b600082825260208201905092915050565b7f43616c6c6572206973206e6f74207468652073656e736f72206f776e65720000600082015250565b6000610d71601e83610d2a565b9150610d7c82610d3b565b602082019050919050565b60006020820190508181036000830152610da081610d64565b9050919050565b7f53656e736f72206973206e6f7420616374697665000000000000000000000000600082015250565b6000610ddd601483610d2a565b9150610de882610da7565b602082019050919050565b60006020820190508181036000830152610e0c81610dd0565b9050919050565b7f50617469656e7420616c72656164792068617320616e206f776e657200000000600082015250565b6000610e49601c83610d2a565b9150610e5482610e13565b602082019050919050565b60006020820190508181036000830152610e7881610e3c565b9050919050565b7f4f6e6c79207468652070617469656e74206f776e65722063616e20616464207360008201527f656e736f72730000000000000000000000000000000000000000000000000000602082015250565b6000610edb602683610d2a565b9150610ee682610e7f565b604082019050919050565b60006020820190508181036000830152610f0a81610ece565b9050919050565b7f53656e736f7220616c7265616479206164646564000000000000000000000000600082015250565b6000610f47601483610d2a565b9150610f5282610f11565b602082019050919050565b60006020820190508181036000830152610f7681610f3a565b9050919050565b7f53656e736f72206e6f7420617574686f72697a6564206f7220696e616374697660008201527f6500000000000000000000000000000000000000000000000000000000000000602082015250565b6000610fd9602183610d2a565b9150610fe482610f7d565b604082019050919050565b6000602082019050818103600083015261100881610fcc565b9050919050565b600081519050919050565b60005b8381101561103857808201518184015260208101905061101d565b60008484015250505050565b600061104f8261100f565b6110598185610d2a565b935061106981856020860161101a565b61107281610b92565b840191505092915050565b600060208201905081810360008301526110978184611044565b90509291505056fea26469706673582212203e3bd8efff924d3b721afff125ca9b4ce6912db34ab1d8997f6a457cc6497aaa64736f6c63430008150033",
  "immutableReferences": {},
  "source": "// SPDX-License-Identifier: MIT\npragma solidity ^0.8.13;\n\ncontract DeviceOwner {\n\n    struct Sensor {\n        address owner;\n        bool isActive;\n    }\n\n    mapping(address => mapping(address => Sensor)) public patientSensors;\n    mapping(address => address) public patientOwners; // Keeps track of who owns each patient\n\n    event SensorAdded(address indexed patient, address indexed sensor);\n    event SensorRevoked(address indexed patient, address indexed sensor);\n    event DataPushed(address indexed patient, address indexed sensor, string data);\n\n    modifier onlySensorOwner(address patient, address sensor) {\n        require(patientSensors[patient][sensor].owner == msg.sender, \"Caller is not the sensor owner\");\n        _;\n    }\n\n    // Set the patient owner when creating the patient record (optional, for future access control)\n    function setPatientOwner(address patient, address owner) public {\n        require(patientOwners[patient] == address(0), \"Patient already has an owner\");\n        patientOwners[patient] = owner;\n    }\n\n    // Function to add a sensor for a patient\n    function addSensorForPatient(address patient, address sensor) public {\n        require(patientOwners[patient] == msg.sender, \"Only the patient owner can add sensors\");\n        require(patientSensors[patient][sensor].isActive == false, \"Sensor already added\");\n\n        patientSensors[patient][sensor] = Sensor({\n            owner: msg.sender,\n            isActive: true\n        });\n\n        emit SensorAdded(patient, sensor);\n    }\n\n    // Function to revoke a sensor for a patient\n    function revokeSensorForPatient(address patient, address sensor) public onlySensorOwner(patient, sensor) {\n        require(patientSensors[patient][sensor].isActive == true, \"Sensor is not active\");\n\n        patientSensors[patient][sensor].isActive = false;\n\n        emit SensorRevoked(patient, sensor);\n    }\n\n    // Function for the sensor to push data for a patient\n    function pushDataForPatient(address patient, string memory data) public {\n        require(patientSensors[patient][msg.sender].isActive == true, \"Sensor not authorized or inactive\");\n\n        emit DataPushed(patient, msg.sender, data);\n    }\n}\n\n",
  "sourcePath": "/home/speedy/test-net/contracts/contracts/DeviceOwner.sol",
  "compiler": {
    "name": "solc",
    "version": "0.8.21+commit.d9974bed.Emscripten.clang"
  },
  "schemaVersion": "3.4.16",
  "updatedAt": "2024-11-05T07:11:19.426Z",
  "devdoc": {
    "kind": "dev",
    "methods": {},
    "version": 1
  },
  "userdoc": {
    "kind": "user",
    "methods": {},
    "version": 1
  }
}