{
  "contractName": "PatientSensorLink",
  "abi": [
    {
      "inputs": [
        {
          "internalType": "address",
          "name": "adminContractAddress",
          "type": "address"
        }
      ],
      "stateMutability": "nonpayable",
      "type": "constructor"
    },
    {
      "anonymous": false,
      "inputs": [
        {
          "indexed": false,
          "internalType": "address",
          "name": "patient",
          "type": "address"
        },
        {
          "indexed": false,
          "internalType": "address",
          "name": "sensor",
          "type": "address"
        }
      ],
      "name": "SensorLinked",
      "type": "event"
    },
    {
      "anonymous": false,
      "inputs": [
        {
          "indexed": false,
          "internalType": "address",
          "name": "patient",
          "type": "address"
        },
        {
          "indexed": false,
          "internalType": "address",
          "name": "sensor",
          "type": "address"
        }
      ],
      "name": "SensorUnlinked",
      "type": "event"
    },
    {
      "inputs": [],
      "name": "adminContract",
      "outputs": [
        {
          "internalType": "contract AdminSensorManagement",
          "name": "",
          "type": "address"
        }
      ],
      "stateMutability": "view",
      "type": "function",
      "constant": true
    },
    {
      "inputs": [
        {
          "internalType": "address",
          "name": "",
          "type": "address"
        },
        {
          "internalType": "uint256",
          "name": "",
          "type": "uint256"
        }
      ],
      "name": "patientSensors",
      "outputs": [
        {
          "internalType": "address",
          "name": "",
          "type": "address"
        }
      ],
      "stateMutability": "view",
      "type": "function",
      "constant": true
    },
    {
      "inputs": [
        {
          "internalType": "address",
          "name": "patient",
          "type": "address"
        },
        {
          "internalType": "address",
          "name": "sensor",
          "type": "address"
        }
      ],
      "name": "linkSensor",
      "outputs": [],
      "stateMutability": "nonpayable",
      "type": "function"
    },
    {
      "inputs": [
        {
          "internalType": "address",
          "name": "patient",
          "type": "address"
        },
        {
          "internalType": "address",
          "name": "sensor",
          "type": "address"
        }
      ],
      "name": "unlinkSensor",
      "outputs": [],
      "stateMutability": "nonpayable",
      "type": "function"
    },
    {
      "inputs": [
        {
          "internalType": "address",
          "name": "patient",
          "type": "address"
        }
      ],
      "name": "getPatientSensors",
      "outputs": [
        {
          "internalType": "address[]",
          "name": "",
          "type": "address[]"
        }
      ],
      "stateMutability": "view",
      "type": "function",
      "constant": true
    }
  ],
  "bytecode": "0x60806040523480156200001157600080fd5b50604051620010ae380380620010ae8339818101604052810190620000379190620000e8565b806000806101000a81548173ffffffffffffffffffffffffffffffffffffffff021916908373ffffffffffffffffffffffffffffffffffffffff160217905550506200011a565b600080fd5b600073ffffffffffffffffffffffffffffffffffffffff82169050919050565b6000620000b08262000083565b9050919050565b620000c281620000a3565b8114620000ce57600080fd5b50565b600081519050620000e281620000b7565b92915050565b6000602082840312156200010157620001006200007e565b5b60006200011184828501620000d1565b91505092915050565b610f84806200012a6000396000f3fe608060405234801561001057600080fd5b50600436106100575760003560e01c8063205237d11461005c5780632bda6f831461007857806334f78e17146100a857806363be997a146100c4578063c05c5e94146100f4575b600080fd5b61007660048036038101906100719190610943565b610112565b005b610092600480360381019061008d9190610983565b610512565b60405161009f9190610a6e565b60405180910390f35b6100c260048036038101906100bd9190610943565b6105df565b005b6100de60048036038101906100d99190610ac6565b61086e565b6040516100eb9190610b15565b60405180910390f35b6100fc6108bc565b6040516101099190610b8f565b60405180910390f35b60008054906101000a900473ffffffffffffffffffffffffffffffffffffffff1673ffffffffffffffffffffffffffffffffffffffff1663b44bc23a336040518263ffffffff1660e01b815260040161016b9190610b15565b602060405180830381865afa158015610188573d6000803e3d6000fd5b505050506040513d601f19601f820116820180604052508101906101ac9190610be2565b6101eb576040517f08c379a00000000000000000000000000000000000000000000000000000000081526004016101e290610c92565b60405180910390fd5b60008054906101000a900473ffffffffffffffffffffffffffffffffffffffff1673ffffffffffffffffffffffffffffffffffffffff1663b44bc23a336040518263ffffffff1660e01b81526004016102449190610b15565b602060405180830381865afa158015610261573d6000803e3d6000fd5b505050506040513d601f19601f820116820180604052508101906102859190610be2565b6102c4576040517f08c379a00000000000000000000000000000000000000000000000000000000081526004016102bb90610cfe565b60405180910390fd5b6000600160008473ffffffffffffffffffffffffffffffffffffffff1673ffffffffffffffffffffffffffffffffffffffff16815260200190815260200160002090506000805b8280549050811015610492578373ffffffffffffffffffffffffffffffffffffffff1683828154811061034157610340610d1e565b5b9060005260206000200160009054906101000a900473ffffffffffffffffffffffffffffffffffffffff1673ffffffffffffffffffffffffffffffffffffffff160361047f5782600184805490506103999190610d7c565b815481106103aa576103a9610d1e565b5b9060005260206000200160009054906101000a900473ffffffffffffffffffffffffffffffffffffffff168382815481106103e8576103e7610d1e565b5b9060005260206000200160006101000a81548173ffffffffffffffffffffffffffffffffffffffff021916908373ffffffffffffffffffffffffffffffffffffffff1602179055508280548061044157610440610db0565b5b6001900381819060005260206000200160006101000a81549073ffffffffffffffffffffffffffffffffffffffff0219169055905560019150610492565b808061048a90610ddf565b91505061030b565b50806104d3576040517f08c379a00000000000000000000000000000000000000000000000000000000081526004016104ca90610e99565b60405180910390fd5b7fdad144f7744604c9d2a8e43a51dff2f91cb4714751c24e59685178af93c8616c8484604051610504929190610eb9565b60405180910390a150505050565b6060600160008373ffffffffffffffffffffffffffffffffffffffff1673ffffffffffffffffffffffffffffffffffffffff1681526020019081526020016000208054806020026020016040519081016040528092919081815260200182805480156105d357602002820191906000526020600020905b8160009054906101000a900473ffffffffffffffffffffffffffffffffffffffff1673ffffffffffffffffffffffffffffffffffffffff1681526020019060010190808311610589575b50505050509050919050565b60008054906101000a900473ffffffffffffffffffffffffffffffffffffffff1673ffffffffffffffffffffffffffffffffffffffff1663b44bc23a336040518263ffffffff1660e01b81526004016106389190610b15565b602060405180830381865afa158015610655573d6000803e3d6000fd5b505050506040513d601f19601f820116820180604052508101906106799190610be2565b6106b8576040517f08c379a00000000000000000000000000000000000000000000000000000000081526004016106af90610c92565b60405180910390fd5b60008054906101000a900473ffffffffffffffffffffffffffffffffffffffff1673ffffffffffffffffffffffffffffffffffffffff16638fbaecd7826040518263ffffffff1660e01b81526004016107119190610b15565b602060405180830381865afa15801561072e573d6000803e3d6000fd5b505050506040513d601f19601f820116820180604052508101906107529190610be2565b610791576040517f08c379a000000000000000000000000000000000000000000000000000000000815260040161078890610f2e565b60405180910390fd5b600160008373ffffffffffffffffffffffffffffffffffffffff1673ffffffffffffffffffffffffffffffffffffffff168152602001908152602001600020819080600181540180825580915050600190039060005260206000200160009091909190916101000a81548173ffffffffffffffffffffffffffffffffffffffff021916908373ffffffffffffffffffffffffffffffffffffffff1602179055507f392315485668508d1dbf9002728a24762d0897cb77172ee224a658e95f5009f88282604051610862929190610eb9565b60405180910390a15050565b6001602052816000526040600020818154811061088a57600080fd5b906000526020600020016000915091509054906101000a900473ffffffffffffffffffffffffffffffffffffffff1681565b60008054906101000a900473ffffffffffffffffffffffffffffffffffffffff1681565b600080fd5b600073ffffffffffffffffffffffffffffffffffffffff82169050919050565b6000610910826108e5565b9050919050565b61092081610905565b811461092b57600080fd5b50565b60008135905061093d81610917565b92915050565b6000806040838503121561095a576109596108e0565b5b60006109688582860161092e565b92505060206109798582860161092e565b9150509250929050565b600060208284031215610999576109986108e0565b5b60006109a78482850161092e565b91505092915050565b600081519050919050565b600082825260208201905092915050565b6000819050602082019050919050565b6109e581610905565b82525050565b60006109f783836109dc565b60208301905092915050565b6000602082019050919050565b6000610a1b826109b0565b610a2581856109bb565b9350610a30836109cc565b8060005b83811015610a61578151610a4888826109eb565b9750610a5383610a03565b925050600181019050610a34565b5085935050505092915050565b60006020820190508181036000830152610a888184610a10565b905092915050565b6000819050919050565b610aa381610a90565b8114610aae57600080fd5b50565b600081359050610ac081610a9a565b92915050565b60008060408385031215610add57610adc6108e0565b5b6000610aeb8582860161092e565b9250506020610afc85828601610ab1565b9150509250929050565b610b0f81610905565b82525050565b6000602082019050610b2a6000830184610b06565b92915050565b6000819050919050565b6000610b55610b50610b4b846108e5565b610b30565b6108e5565b9050919050565b6000610b6782610b3a565b9050919050565b6000610b7982610b5c565b9050919050565b610b8981610b6e565b82525050565b6000602082019050610ba46000830184610b80565b92915050565b60008115159050919050565b610bbf81610baa565b8114610bca57600080fd5b50565b600081519050610bdc81610bb6565b92915050565b600060208284031215610bf857610bf76108e0565b5b6000610c0684828501610bcd565b91505092915050565b600082825260208201905092915050565b7f4f6e6c7920617574686f72697a6564206f776e6572732063616e2063616c6c2060008201527f746869732066756e6374696f6e00000000000000000000000000000000000000602082015250565b6000610c7c602d83610c0f565b9150610c8782610c20565b604082019050919050565b60006020820190508181036000830152610cab81610c6f565b9050919050565b7f4e6f7420616e20617574686f72697a6564206f776e6572000000000000000000600082015250565b6000610ce8601783610c0f565b9150610cf382610cb2565b602082019050919050565b60006020820190508181036000830152610d1781610cdb565b9050919050565b7f4e487b7100000000000000000000000000000000000000000000000000000000600052603260045260246000fd5b7f4e487b7100000000000000000000000000000000000000000000000000000000600052601160045260246000fd5b6000610d8782610a90565b9150610d9283610a90565b9250828203905081811115610daa57610da9610d4d565b5b92915050565b7f4e487b7100000000000000000000000000000000000000000000000000000000600052603160045260246000fd5b6000610dea82610a90565b91507fffffffffffffffffffffffffffffffffffffffffffffffffffffffffffffffff8203610e1c57610e1b610d4d565b5b600182019050919050565b7f53656e736f72206e6f74206c696e6b656420746f20746869732070617469656e60008201527f7400000000000000000000000000000000000000000000000000000000000000602082015250565b6000610e83602183610c0f565b9150610e8e82610e27565b604082019050919050565b60006020820190508181036000830152610eb281610e76565b9050919050565b6000604082019050610ece6000830185610b06565b610edb6020830184610b06565b9392505050565b7f53656e736f72206e6f7420617574686f72697a65640000000000000000000000600082015250565b6000610f18601583610c0f565b9150610f2382610ee2565b602082019050919050565b60006020820190508181036000830152610f4781610f0b565b905091905056fea2646970667358221220d78ed68ae5dcf36e5c88e4cea0ed22dab477da5dcb49fde7d3a637bea17cfa6f64736f6c63430008150033",
  "immutableReferences": {},
  "source": "// SPDX-License-Identifier: MIT\npragma solidity >=0.6.0 <0.9.0;\n\nimport \"./AdminSensorManagement.sol\";\n\ncontract PatientSensorLink {\n    AdminSensorManagement public adminContract;\n\n    // Mapping for linking patients to sensors\n    mapping(address => address[]) public patientSensors;\n\n    // Events\n    event SensorLinked(address patient, address sensor);\n    event SensorUnlinked(address patient, address sensor);\n\n    constructor(address adminContractAddress) {\n        adminContract = AdminSensorManagement(adminContractAddress);\n    }\n\n    modifier onlyAuthorizedOwner() {\n        require(\n            adminContract.allowedOwners(msg.sender),\n            \"Only authorized owners can call this function\"\n        );\n        _;\n    }\n\n    // Function to link a patient with a sensor\n    function linkSensor(address patient, address sensor) public onlyAuthorizedOwner {\n        require(adminContract.allowedSensors(sensor), \"Sensor not authorized\");\n        patientSensors[patient].push(sensor);\n        emit SensorLinked(patient, sensor);\n    }\n\n    // Function to unlink a specific sensor from a patient\n    function unlinkSensor(address patient, address sensor) public onlyAuthorizedOwner {\n        require(adminContract.allowedOwners(msg.sender), \"Not an authorized owner\");\n\n        address[] storage sensors = patientSensors[patient];\n        bool found = false;\n\n        for (uint256 i = 0; i < sensors.length; i++) {\n            if (sensors[i] == sensor) {\n                sensors[i] = sensors[sensors.length - 1]; // Replace with the last element\n                sensors.pop(); // Remove the last element\n                found = true;\n                break;\n            }\n        }\n\n        require(found, \"Sensor not linked to this patient\");\n        emit SensorUnlinked(patient, sensor);\n    }\n\n    // Get all sensors linked to a patient\n    function getPatientSensors(address patient) public view returns (address[] memory) {\n        return patientSensors[patient];\n    }\n}\n\n",
  "sourcePath": "/home/speedy/test-net/contracts/contracts/PatientSensorLink.sol",
  "compiler": {
    "name": "solc",
    "version": "0.8.21+commit.d9974bed.Emscripten.clang"
  },
  "schemaVersion": "3.4.16",
  "updatedAt": "2025-01-02T12:08:36.946Z",
  "networkType": "ethereum",
  "devdoc": {
    "kind": "dev",
    "methods": {},
    "version": 1
  },
  "userdoc": {
    "kind": "user",
    "methods": {},
    "version": 1
  }
}