{
  "contractName": "PatientRecord",
  "abi": [
    {
      "inputs": [],
      "stateMutability": "nonpayable",
      "type": "constructor"
    },
    {
      "anonymous": false,
      "inputs": [
        {
          "indexed": false,
          "internalType": "uint8",
          "name": "patientId",
          "type": "uint8"
        },
        {
          "indexed": false,
          "internalType": "string",
          "name": "department",
          "type": "string"
        },
        {
          "indexed": false,
          "internalType": "string",
          "name": "socialInsuranceNumber",
          "type": "string"
        },
        {
          "indexed": false,
          "internalType": "string",
          "name": "gender",
          "type": "string"
        },
        {
          "indexed": false,
          "internalType": "string",
          "name": "medicalHistory",
          "type": "string"
        },
        {
          "indexed": false,
          "internalType": "string",
          "name": "dateOfBirth",
          "type": "string"
        },
        {
          "indexed": false,
          "internalType": "uint256",
          "name": "timestamp",
          "type": "uint256"
        }
      ],
      "name": "PatientCreated",
      "type": "event"
    },
    {
      "anonymous": false,
      "inputs": [
        {
          "indexed": false,
          "internalType": "uint8",
          "name": "patientId",
          "type": "uint8"
        },
        {
          "indexed": false,
          "internalType": "string",
          "name": "department",
          "type": "string"
        },
        {
          "indexed": false,
          "internalType": "string",
          "name": "socialInsuranceNumber",
          "type": "string"
        },
        {
          "indexed": false,
          "internalType": "uint256",
          "name": "timestamp",
          "type": "uint256"
        }
      ],
      "name": "PatientUpdated",
      "type": "event"
    },
    {
      "inputs": [],
      "name": "admin",
      "outputs": [
        {
          "internalType": "address",
          "name": "",
          "type": "address"
        }
      ],
      "stateMutability": "view",
      "type": "function"
    },
    {
      "inputs": [
        {
          "internalType": "uint8",
          "name": "_patientId",
          "type": "uint8"
        },
        {
          "internalType": "string",
          "name": "_department",
          "type": "string"
        },
        {
          "internalType": "string",
          "name": "_socialInsuranceNumber",
          "type": "string"
        },
        {
          "internalType": "string",
          "name": "_gender",
          "type": "string"
        },
        {
          "internalType": "string",
          "name": "_medicalHistory",
          "type": "string"
        },
        {
          "internalType": "string",
          "name": "_dateOfBirth",
          "type": "string"
        }
      ],
      "name": "createPatient",
      "outputs": [],
      "stateMutability": "nonpayable",
      "type": "function"
    },
    {
      "inputs": [
        {
          "internalType": "uint8",
          "name": "_patientId",
          "type": "uint8"
        },
        {
          "internalType": "string",
          "name": "_department",
          "type": "string"
        },
        {
          "internalType": "string",
          "name": "_socialInsuranceNumber",
          "type": "string"
        }
      ],
      "name": "updatePatient",
      "outputs": [],
      "stateMutability": "nonpayable",
      "type": "function"
    },
    {
      "inputs": [
        {
          "internalType": "uint8",
          "name": "_patientId",
          "type": "uint8"
        }
      ],
      "name": "getPatient",
      "outputs": [
        {
          "internalType": "uint8",
          "name": "",
          "type": "uint8"
        },
        {
          "internalType": "string",
          "name": "",
          "type": "string"
        },
        {
          "internalType": "string",
          "name": "",
          "type": "string"
        },
        {
          "internalType": "string",
          "name": "",
          "type": "string"
        },
        {
          "internalType": "string",
          "name": "",
          "type": "string"
        },
        {
          "internalType": "string",
          "name": "",
          "type": "string"
        },
        {
          "internalType": "uint256",
          "name": "",
          "type": "uint256"
        }
      ],
      "stateMutability": "view",
      "type": "function"
    }
  ],
  "bytecode": "0x608060405234801561001057600080fd5b50336000806101000a81548173ffffffffffffffffffffffffffffffffffffffff021916908373ffffffffffffffffffffffffffffffffffffffff160217905550610ffb806100606000396000f3fe608060405234801561001057600080fd5b506004361061004c5760003560e01c80636e22e480146100515780636ed808621461006d57806374025db4146100a3578063f851a440146100bf575b600080fd5b61006b6004803603810190610066919061089c565b6100dd565b005b610087600480360381019061008291906109b5565b6102a1565b60405161009a9796959493929190610a89565b60405180910390f35b6100bd60048036038101906100b89190610b1b565b6105ca565b005b6100c76106e5565b6040516100d49190610be7565b60405180910390f35b60008054906101000a900473ffffffffffffffffffffffffffffffffffffffff1673ffffffffffffffffffffffffffffffffffffffff163373ffffffffffffffffffffffffffffffffffffffff161461016b576040517f08c379a000000000000000000000000000000000000000000000000000000000815260040161016290610c74565b60405180910390fd5b6040518060e001604052808760ff16815260200186815260200185815260200184815260200183815260200182815260200142815250600160008860ff1660ff16815260200190815260200160002060008201518160000160006101000a81548160ff021916908360ff16021790555060208201518160010190816101f09190610ea0565b5060408201518160020190816102069190610ea0565b50606082015181600301908161021c9190610ea0565b5060808201518160040190816102329190610ea0565b5060a08201518160050190816102489190610ea0565b5060c082015181600601559050507f56c851f0cd1f00ec88f8093ddd2c0c281c812da41bbeb95b7a048765b1c8d46a868686868686426040516102919796959493929190610a89565b60405180910390a1505050505050565b60006060806060806060600080600160008a60ff1660ff16815260200190815260200160002090508060000160009054906101000a900460ff168160010182600201836003018460040185600501866006015485805461030090610cc3565b80601f016020809104026020016040519081016040528092919081815260200182805461032c90610cc3565b80156103795780601f1061034e57610100808354040283529160200191610379565b820191906000526020600020905b81548152906001019060200180831161035c57829003601f168201915b5050505050955084805461038c90610cc3565b80601f01602080910402602001604051908101604052809291908181526020018280546103b890610cc3565b80156104055780601f106103da57610100808354040283529160200191610405565b820191906000526020600020905b8154815290600101906020018083116103e857829003601f168201915b5050505050945083805461041890610cc3565b80601f016020809104026020016040519081016040528092919081815260200182805461044490610cc3565b80156104915780601f1061046657610100808354040283529160200191610491565b820191906000526020600020905b81548152906001019060200180831161047457829003601f168201915b505050505093508280546104a490610cc3565b80601f01602080910402602001604051908101604052809291908181526020018280546104d090610cc3565b801561051d5780601f106104f25761010080835404028352916020019161051d565b820191906000526020600020905b81548152906001019060200180831161050057829003601f168201915b5050505050925081805461053090610cc3565b80601f016020809104026020016040519081016040528092919081815260200182805461055c90610cc3565b80156105a95780601f1061057e576101008083540402835291602001916105a9565b820191906000526020600020905b81548152906001019060200180831161058c57829003601f168201915b50505050509150975097509750975097509750975050919395979092949650565b60008054906101000a900473ffffffffffffffffffffffffffffffffffffffff1673ffffffffffffffffffffffffffffffffffffffff163373ffffffffffffffffffffffffffffffffffffffff1614610658576040517f08c379a000000000000000000000000000000000000000000000000000000000815260040161064f90610c74565b60405180910390fd5b6000600160008560ff1660ff1681526020019081526020016000209050828160010190816106869190610ea0565b50818160020190816106989190610ea0565b504281600601819055507f0f5def6425f3202411ad9ad429e365a514602776dedf0d55f278958d0884044a848484426040516106d79493929190610f72565b60405180910390a150505050565b60008054906101000a900473ffffffffffffffffffffffffffffffffffffffff1681565b6000604051905090565b600080fd5b600080fd5b600060ff82169050919050565b6107338161071d565b811461073e57600080fd5b50565b6000813590506107508161072a565b92915050565b600080fd5b600080fd5b6000601f19601f8301169050919050565b7f4e487b7100000000000000000000000000000000000000000000000000000000600052604160045260246000fd5b6107a982610760565b810181811067ffffffffffffffff821117156107c8576107c7610771565b5b80604052505050565b60006107db610709565b90506107e782826107a0565b919050565b600067ffffffffffffffff82111561080757610806610771565b5b61081082610760565b9050602081019050919050565b82818337600083830152505050565b600061083f61083a846107ec565b6107d1565b90508281526020810184848401111561085b5761085a61075b565b5b61086684828561081d565b509392505050565b600082601f83011261088357610882610756565b5b813561089384826020860161082c565b91505092915050565b60008060008060008060c087890312156108b9576108b8610713565b5b60006108c789828a01610741565b965050602087013567ffffffffffffffff8111156108e8576108e7610718565b5b6108f489828a0161086e565b955050604087013567ffffffffffffffff81111561091557610914610718565b5b61092189828a0161086e565b945050606087013567ffffffffffffffff81111561094257610941610718565b5b61094e89828a0161086e565b935050608087013567ffffffffffffffff81111561096f5761096e610718565b5b61097b89828a0161086e565b92505060a087013567ffffffffffffffff81111561099c5761099b610718565b5b6109a889828a0161086e565b9150509295509295509295565b6000602082840312156109cb576109ca610713565b5b60006109d984828501610741565b91505092915050565b6109eb8161071d565b82525050565b600081519050919050565b600082825260208201905092915050565b60005b83811015610a2b578082015181840152602081019050610a10565b60008484015250505050565b6000610a42826109f1565b610a4c81856109fc565b9350610a5c818560208601610a0d565b610a6581610760565b840191505092915050565b6000819050919050565b610a8381610a70565b82525050565b600060e082019050610a9e600083018a6109e2565b8181036020830152610ab08189610a37565b90508181036040830152610ac48188610a37565b90508181036060830152610ad88187610a37565b90508181036080830152610aec8186610a37565b905081810360a0830152610b008185610a37565b9050610b0f60c0830184610a7a565b98975050505050505050565b600080600060608486031215610b3457610b33610713565b5b6000610b4286828701610741565b935050602084013567ffffffffffffffff811115610b6357610b62610718565b5b610b6f8682870161086e565b925050604084013567ffffffffffffffff811115610b9057610b8f610718565b5b610b9c8682870161086e565b9150509250925092565b600073ffffffffffffffffffffffffffffffffffffffff82169050919050565b6000610bd182610ba6565b9050919050565b610be181610bc6565b82525050565b6000602082019050610bfc6000830184610bd8565b92915050565b7f4f6e6c792061646d696e2063616e20706572666f726d2074686973206163746960008201527f6f6e000000000000000000000000000000000000000000000000000000000000602082015250565b6000610c5e6022836109fc565b9150610c6982610c02565b604082019050919050565b60006020820190508181036000830152610c8d81610c51565b9050919050565b7f4e487b7100000000000000000000000000000000000000000000000000000000600052602260045260246000fd5b60006002820490506001821680610cdb57607f821691505b602082108103610cee57610ced610c94565b5b50919050565b60008190508160005260206000209050919050565b60006020601f8301049050919050565b600082821b905092915050565b600060088302610d567fffffffffffffffffffffffffffffffffffffffffffffffffffffffffffffffff82610d19565b610d608683610d19565b95508019841693508086168417925050509392505050565b6000819050919050565b6000610d9d610d98610d9384610a70565b610d78565b610a70565b9050919050565b6000819050919050565b610db783610d82565b610dcb610dc382610da4565b848454610d26565b825550505050565b600090565b610de0610dd3565b610deb818484610dae565b505050565b5b81811015610e0f57610e04600082610dd8565b600181019050610df1565b5050565b601f821115610e5457610e2581610cf4565b610e2e84610d09565b81016020851015610e3d578190505b610e51610e4985610d09565b830182610df0565b50505b505050565b600082821c905092915050565b6000610e7760001984600802610e59565b1980831691505092915050565b6000610e908383610e66565b9150826002028217905092915050565b610ea9826109f1565b67ffffffffffffffff811115610ec257610ec1610771565b5b610ecc8254610cc3565b610ed7828285610e13565b600060209050601f831160018114610f0a5760008415610ef8578287015190505b610f028582610e84565b865550610f6a565b601f198416610f1886610cf4565b60005b82811015610f4057848901518255600182019150602085019450602081019050610f1b565b86831015610f5d5784890151610f59601f891682610e66565b8355505b6001600288020188555050505b505050505050565b6000608082019050610f8760008301876109e2565b8181036020830152610f998186610a37565b90508181036040830152610fad8185610a37565b9050610fbc6060830184610a7a565b9594505050505056fea2646970667358221220369c347bb0b33023da1f106a21b49df0b2f3f1fb76a6fba8d696f5f45012519e64736f6c63430008150033",
  "immutableReferences": {},
  "source": "// SPDX-License-Identifier: MIT\npragma solidity ^0.8.13;\n\ncontract PatientRecord {\n    address public admin;\n\n    struct Patient {\n        uint8 patientId;\n        string department;\n        string socialInsuranceNumber;\n        string gender;\n        string medicalHistory;\n        string dateOfBirth;\n        uint256 timestamp;\n    }\n\n    mapping(uint8 => Patient) private patients;\n\n    event PatientCreated(uint8 patientId, string department, string socialInsuranceNumber, string gender, string medicalHistory, string dateOfBirth, uint256 timestamp);   \n    event PatientUpdated(uint8 patientId, string department, string socialInsuranceNumber, uint256 timestamp);\n\n    modifier onlyAdmin() {\n        require(msg.sender == admin, \"Only admin can perform this action\");\n        _;\n    }\n\n    constructor() {\n        admin = msg.sender;\n    }\n\n    function createPatient(\n        uint8 _patientId,\n        string memory _department,\n        string memory _socialInsuranceNumber,\n        string memory _gender,\n        string memory _medicalHistory,\n        string memory _dateOfBirth\n    ) public onlyAdmin {\n        patients[_patientId] = Patient({\n            patientId: _patientId,\n            department: _department,\n            socialInsuranceNumber: _socialInsuranceNumber,\n            gender: _gender,\n            medicalHistory: _medicalHistory,\n            dateOfBirth: _dateOfBirth,\n            timestamp: block.timestamp\n        });\n        emit PatientCreated(_patientId, _department, _socialInsuranceNumber, _gender, _medicalHistory, _dateOfBirth, block.timestamp);\n    }\n\n    function updatePatient(\n        uint8 _patientId,\n        string memory _department,\n        string memory _socialInsuranceNumber\n    ) public onlyAdmin {\n        Patient storage patient = patients[_patientId];\n        patient.department = _department;\n        patient.socialInsuranceNumber = _socialInsuranceNumber;\n        patient.timestamp = block.timestamp;\n        emit PatientUpdated(_patientId, _department, _socialInsuranceNumber, block.timestamp);\n    }\n\n    // Getter function to retrieve patient details\n    function getPatient(uint8 _patientId)\n        public\n        view\n        returns (\n            uint8,\n            string memory,\n            string memory,\n            string memory,\n            string memory,\n            string memory,\n            uint256\n        )\n    {\n        Patient storage patient = patients[_patientId];\n        return (\n            patient.patientId,\n            patient.department,\n            patient.socialInsuranceNumber,\n            patient.gender,\n            patient.medicalHistory,\n            patient.dateOfBirth,\n            patient.timestamp\n        );\n    }\n}\n\n",
  "sourcePath": "/home/speedy/test-net/contracts/contracts/Patient.sol",
  "compiler": {
    "name": "solc",
    "version": "0.8.21+commit.d9974bed.Emscripten.clang"
  },
  "schemaVersion": "3.4.16",
  "updatedAt": "2024-11-05T07:11:19.451Z",
  "devdoc": {
    "kind": "dev",
    "methods": {},
    "version": 1
  },
  "userdoc": {
    "kind": "user",
    "methods": {},
    "version": 1
  }
}