{
  "contractName": "TransactionInfoStorage",
  "abi": [
    {
      "inputs": [],
      "stateMutability": "nonpayable",
      "type": "constructor"
    },
    {
      "anonymous": false,
      "inputs": [
        {
          "indexed": true,
          "internalType": "uint256",
          "name": "transactionID",
          "type": "uint256"
        },
        {
          "indexed": false,
          "internalType": "string",
          "name": "networkID",
          "type": "string"
        },
        {
          "indexed": false,
          "internalType": "string",
          "name": "chainID",
          "type": "string"
        },
        {
          "indexed": false,
          "internalType": "string",
          "name": "blockNumber",
          "type": "string"
        },
        {
          "indexed": false,
          "internalType": "string",
          "name": "transactionHash",
          "type": "string"
        },
        {
          "indexed": false,
          "internalType": "string",
          "name": "blockHash",
          "type": "string"
        },
        {
          "indexed": false,
          "internalType": "string",
          "name": "timeStamp",
          "type": "string"
        },
        {
          "indexed": false,
          "internalType": "string[]",
          "name": "validators",
          "type": "string[]"
        }
      ],
      "name": "TransactionStored",
      "type": "event"
    },
    {
      "inputs": [],
      "name": "allowedAddress",
      "outputs": [
        {
          "internalType": "address",
          "name": "",
          "type": "address"
        }
      ],
      "stateMutability": "view",
      "type": "function",
      "constant": true
    },
    {
      "inputs": [],
      "name": "transactionCount",
      "outputs": [
        {
          "internalType": "uint256",
          "name": "",
          "type": "uint256"
        }
      ],
      "stateMutability": "view",
      "type": "function",
      "constant": true
    },
    {
      "inputs": [
        {
          "internalType": "uint256",
          "name": "",
          "type": "uint256"
        }
      ],
      "name": "transactions",
      "outputs": [
        {
          "internalType": "string",
          "name": "networkID",
          "type": "string"
        },
        {
          "internalType": "string",
          "name": "chainID",
          "type": "string"
        },
        {
          "internalType": "string",
          "name": "blockNumber",
          "type": "string"
        },
        {
          "internalType": "string",
          "name": "transactionHash",
          "type": "string"
        },
        {
          "internalType": "string",
          "name": "blockHash",
          "type": "string"
        },
        {
          "internalType": "string",
          "name": "timeStamp",
          "type": "string"
        }
      ],
      "stateMutability": "view",
      "type": "function",
      "constant": true
    },
    {
      "inputs": [
        {
          "internalType": "string",
          "name": "_networkID",
          "type": "string"
        },
        {
          "internalType": "string",
          "name": "_chainID",
          "type": "string"
        },
        {
          "internalType": "string",
          "name": "_blockNumber",
          "type": "string"
        },
        {
          "internalType": "string",
          "name": "_transactionHash",
          "type": "string"
        },
        {
          "internalType": "string",
          "name": "_blockHash",
          "type": "string"
        },
        {
          "internalType": "string",
          "name": "_timeStamp",
          "type": "string"
        },
        {
          "internalType": "string[]",
          "name": "_validators",
          "type": "string[]"
        }
      ],
      "name": "storeTransactionInfo",
      "outputs": [],
      "stateMutability": "nonpayable",
      "type": "function"
    },
    {
      "inputs": [
        {
          "internalType": "uint256",
          "name": "transactionID",
          "type": "uint256"
        }
      ],
      "name": "getTransactionInfo",
      "outputs": [
        {
          "internalType": "string",
          "name": "networkID",
          "type": "string"
        },
        {
          "internalType": "string",
          "name": "chainID",
          "type": "string"
        },
        {
          "internalType": "string",
          "name": "blockNumber",
          "type": "string"
        },
        {
          "internalType": "string",
          "name": "transactionHash",
          "type": "string"
        },
        {
          "internalType": "string",
          "name": "blockHash",
          "type": "string"
        },
        {
          "internalType": "string",
          "name": "timeStamp",
          "type": "string"
        },
        {
          "internalType": "string[]",
          "name": "validators",
          "type": "string[]"
        }
      ],
      "stateMutability": "view",
      "type": "function",
      "constant": true
    },
    {
      "inputs": [
        {
          "internalType": "address",
          "name": "_newAllowedAddress",
          "type": "address"
        }
      ],
      "name": "updateAllowedAddress",
      "outputs": [],
      "stateMutability": "nonpayable",
      "type": "function"
    }
  ],
  "bytecode": "0x608060405234801561001057600080fd5b50336000806101000a81548173ffffffffffffffffffffffffffffffffffffffff021916908373ffffffffffffffffffffffffffffffffffffffff1602179055506118d2806100606000396000f3fe608060405234801561001057600080fd5b50600436106100625760003560e01c806304baf559146100675780634bedf42a146100835780634cf781701461009f5780639ace38c2146100bd578063b77bf600146100f2578063d7aa827314610110575b600080fd5b610081600480360381019061007c9190610f57565b610146565b005b61009d6004803603810190610098919061111b565b610327565b005b6100a76103f8565b6040516100b49190611157565b60405180910390f35b6100d760048036038101906100d291906111a8565b61041c565b6040516100e996959493929190611254565b60405180910390f35b6100fa610788565b60405161010791906112ee565b60405180910390f35b61012a600480360381019061012591906111a8565b61078e565b60405161013d9796959493929190611415565b60405180910390f35b60008054906101000a900473ffffffffffffffffffffffffffffffffffffffff1673ffffffffffffffffffffffffffffffffffffffff163373ffffffffffffffffffffffffffffffffffffffff16146101d4576040517f08c379a00000000000000000000000000000000000000000000000000000000081526004016101cb90611527565b60405180910390fd5b6040518060e001604052808881526020018781526020018681526020018581526020018481526020018381526020018281525060016000600254815260200190815260200160002060008201518160000190816102319190611753565b5060208201518160010190816102479190611753565b50604082015181600201908161025d9190611753565b5060608201518160030190816102739190611753565b5060808201518160040190816102899190611753565b5060a082015181600501908161029f9190611753565b5060c08201518160060190805190602001906102bc929190610c3d565b509050506002547f9af00c46cd9bfc2796297157c68b5e77466cce511f6104003ee05fc85632ba9c888888888888886040516102fe9796959493929190611415565b60405180910390a26002600081548092919061031990611854565b919050555050505050505050565b60008054906101000a900473ffffffffffffffffffffffffffffffffffffffff1673ffffffffffffffffffffffffffffffffffffffff163373ffffffffffffffffffffffffffffffffffffffff16146103b5576040517f08c379a00000000000000000000000000000000000000000000000000000000081526004016103ac90611527565b60405180910390fd5b806000806101000a81548173ffffffffffffffffffffffffffffffffffffffff021916908373ffffffffffffffffffffffffffffffffffffffff16021790555050565b60008054906101000a900473ffffffffffffffffffffffffffffffffffffffff1681565b600160205280600052604060002060009150905080600001805461043f90611576565b80601f016020809104026020016040519081016040528092919081815260200182805461046b90611576565b80156104b85780601f1061048d576101008083540402835291602001916104b8565b820191906000526020600020905b81548152906001019060200180831161049b57829003601f168201915b5050505050908060010180546104cd90611576565b80601f01602080910402602001604051908101604052809291908181526020018280546104f990611576565b80156105465780601f1061051b57610100808354040283529160200191610546565b820191906000526020600020905b81548152906001019060200180831161052957829003601f168201915b50505050509080600201805461055b90611576565b80601f016020809104026020016040519081016040528092919081815260200182805461058790611576565b80156105d45780601f106105a9576101008083540402835291602001916105d4565b820191906000526020600020905b8154815290600101906020018083116105b757829003601f168201915b5050505050908060030180546105e990611576565b80601f016020809104026020016040519081016040528092919081815260200182805461061590611576565b80156106625780601f1061063757610100808354040283529160200191610662565b820191906000526020600020905b81548152906001019060200180831161064557829003601f168201915b50505050509080600401805461067790611576565b80601f01602080910402602001604051908101604052809291908181526020018280546106a390611576565b80156106f05780601f106106c5576101008083540402835291602001916106f0565b820191906000526020600020905b8154815290600101906020018083116106d357829003601f168201915b50505050509080600501805461070590611576565b80601f016020809104026020016040519081016040528092919081815260200182805461073190611576565b801561077e5780601f106107535761010080835404028352916020019161077e565b820191906000526020600020905b81548152906001019060200180831161076157829003601f168201915b5050505050905086565b60025481565b60608060608060608060606000600160008a81526020019081526020016000206040518060e00160405290816000820180546107c990611576565b80601f01602080910402602001604051908101604052809291908181526020018280546107f590611576565b80156108425780601f1061081757610100808354040283529160200191610842565b820191906000526020600020905b81548152906001019060200180831161082557829003601f168201915b5050505050815260200160018201805461085b90611576565b80601f016020809104026020016040519081016040528092919081815260200182805461088790611576565b80156108d45780601f106108a9576101008083540402835291602001916108d4565b820191906000526020600020905b8154815290600101906020018083116108b757829003601f168201915b505050505081526020016002820180546108ed90611576565b80601f016020809104026020016040519081016040528092919081815260200182805461091990611576565b80156109665780601f1061093b57610100808354040283529160200191610966565b820191906000526020600020905b81548152906001019060200180831161094957829003601f168201915b5050505050815260200160038201805461097f90611576565b80601f01602080910402602001604051908101604052809291908181526020018280546109ab90611576565b80156109f85780601f106109cd576101008083540402835291602001916109f8565b820191906000526020600020905b8154815290600101906020018083116109db57829003601f168201915b50505050508152602001600482018054610a1190611576565b80601f0160208091040260200160405190810160405280929190818152602001828054610a3d90611576565b8015610a8a5780601f10610a5f57610100808354040283529160200191610a8a565b820191906000526020600020905b815481529060010190602001808311610a6d57829003601f168201915b50505050508152602001600582018054610aa390611576565b80601f0160208091040260200160405190810160405280929190818152602001828054610acf90611576565b8015610b1c5780601f10610af157610100808354040283529160200191610b1c565b820191906000526020600020905b815481529060010190602001808311610aff57829003601f168201915b5050505050815260200160068201805480602002602001604051908101604052809291908181526020016000905b82821015610bf6578382906000526020600020018054610b6990611576565b80601f0160208091040260200160405190810160405280929190818152602001828054610b9590611576565b8015610be25780601f10610bb757610100808354040283529160200191610be2565b820191906000526020600020905b815481529060010190602001808311610bc557829003601f168201915b505050505081526020019060010190610b4a565b50505050815250509050806000015181602001518260400151836060015184608001518560a001518660c00151975097509750975097509750975050919395979092949650565b828054828255906000526020600020908101928215610c85579160200282015b82811115610c84578251829081610c749190611753565b5091602001919060010190610c5d565b5b509050610c929190610c96565b5090565b5b80821115610cb65760008181610cad9190610cba565b50600101610c97565b5090565b508054610cc690611576565b6000825580601f10610cd85750610cf7565b601f016020900490600052602060002090810190610cf69190610cfa565b5b50565b5b80821115610d13576000816000905550600101610cfb565b5090565b6000604051905090565b600080fd5b600080fd5b600080fd5b600080fd5b6000601f19601f8301169050919050565b7f4e487b7100000000000000000000000000000000000000000000000000000000600052604160045260246000fd5b610d7e82610d35565b810181811067ffffffffffffffff82111715610d9d57610d9c610d46565b5b80604052505050565b6000610db0610d17565b9050610dbc8282610d75565b919050565b600067ffffffffffffffff821115610ddc57610ddb610d46565b5b610de582610d35565b9050602081019050919050565b82818337600083830152505050565b6000610e14610e0f84610dc1565b610da6565b905082815260208101848484011115610e3057610e2f610d30565b5b610e3b848285610df2565b509392505050565b600082601f830112610e5857610e57610d2b565b5b8135610e68848260208601610e01565b91505092915050565b600067ffffffffffffffff821115610e8c57610e8b610d46565b5b602082029050602081019050919050565b600080fd5b6000610eb5610eb084610e71565b610da6565b90508083825260208201905060208402830185811115610ed857610ed7610e9d565b5b835b81811015610f1f57803567ffffffffffffffff811115610efd57610efc610d2b565b5b808601610f0a8982610e43565b85526020850194505050602081019050610eda565b5050509392505050565b600082601f830112610f3e57610f3d610d2b565b5b8135610f4e848260208601610ea2565b91505092915050565b600080600080600080600060e0888a031215610f7657610f75610d21565b5b600088013567ffffffffffffffff811115610f9457610f93610d26565b5b610fa08a828b01610e43565b975050602088013567ffffffffffffffff811115610fc157610fc0610d26565b5b610fcd8a828b01610e43565b965050604088013567ffffffffffffffff811115610fee57610fed610d26565b5b610ffa8a828b01610e43565b955050606088013567ffffffffffffffff81111561101b5761101a610d26565b5b6110278a828b01610e43565b945050608088013567ffffffffffffffff81111561104857611047610d26565b5b6110548a828b01610e43565b93505060a088013567ffffffffffffffff81111561107557611074610d26565b5b6110818a828b01610e43565b92505060c088013567ffffffffffffffff8111156110a2576110a1610d26565b5b6110ae8a828b01610f29565b91505092959891949750929550565b600073ffffffffffffffffffffffffffffffffffffffff82169050919050565b60006110e8826110bd565b9050919050565b6110f8816110dd565b811461110357600080fd5b50565b600081359050611115816110ef565b92915050565b60006020828403121561113157611130610d21565b5b600061113f84828501611106565b91505092915050565b611151816110dd565b82525050565b600060208201905061116c6000830184611148565b92915050565b6000819050919050565b61118581611172565b811461119057600080fd5b50565b6000813590506111a28161117c565b92915050565b6000602082840312156111be576111bd610d21565b5b60006111cc84828501611193565b91505092915050565b600081519050919050565b600082825260208201905092915050565b60005b8381101561120f5780820151818401526020810190506111f4565b60008484015250505050565b6000611226826111d5565b61123081856111e0565b93506112408185602086016111f1565b61124981610d35565b840191505092915050565b600060c082019050818103600083015261126e818961121b565b90508181036020830152611282818861121b565b90508181036040830152611296818761121b565b905081810360608301526112aa818661121b565b905081810360808301526112be818561121b565b905081810360a08301526112d2818461121b565b9050979650505050505050565b6112e881611172565b82525050565b600060208201905061130360008301846112df565b92915050565b600081519050919050565b600082825260208201905092915050565b6000819050602082019050919050565b600082825260208201905092915050565b6000611351826111d5565b61135b8185611335565b935061136b8185602086016111f1565b61137481610d35565b840191505092915050565b600061138b8383611346565b905092915050565b6000602082019050919050565b60006113ab82611309565b6113b58185611314565b9350836020820285016113c785611325565b8060005b8581101561140357848403895281516113e4858261137f565b94506113ef83611393565b925060208a019950506001810190506113cb565b50829750879550505050505092915050565b600060e082019050818103600083015261142f818a61121b565b90508181036020830152611443818961121b565b90508181036040830152611457818861121b565b9050818103606083015261146b818761121b565b9050818103608083015261147f818661121b565b905081810360a0830152611493818561121b565b905081810360c08301526114a781846113a0565b905098975050505050505050565b7f4e6f7420617574686f72697a656420746f2073746f726520696e666f726d617460008201527f696f6e2e00000000000000000000000000000000000000000000000000000000602082015250565b60006115116024836111e0565b915061151c826114b5565b604082019050919050565b6000602082019050818103600083015261154081611504565b9050919050565b7f4e487b7100000000000000000000000000000000000000000000000000000000600052602260045260246000fd5b6000600282049050600182168061158e57607f821691505b6020821081036115a1576115a0611547565b5b50919050565b60008190508160005260206000209050919050565b60006020601f8301049050919050565b600082821b905092915050565b6000600883026116097fffffffffffffffffffffffffffffffffffffffffffffffffffffffffffffffff826115cc565b61161386836115cc565b95508019841693508086168417925050509392505050565b6000819050919050565b600061165061164b61164684611172565b61162b565b611172565b9050919050565b6000819050919050565b61166a83611635565b61167e61167682611657565b8484546115d9565b825550505050565b600090565b611693611686565b61169e818484611661565b505050565b5b818110156116c2576116b760008261168b565b6001810190506116a4565b5050565b601f821115611707576116d8816115a7565b6116e1846115bc565b810160208510156116f0578190505b6117046116fc856115bc565b8301826116a3565b50505b505050565b600082821c905092915050565b600061172a6000198460080261170c565b1980831691505092915050565b60006117438383611719565b9150826002028217905092915050565b61175c826111d5565b67ffffffffffffffff81111561177557611774610d46565b5b61177f8254611576565b61178a8282856116c6565b600060209050601f8311600181146117bd57600084156117ab578287015190505b6117b58582611737565b86555061181d565b601f1984166117cb866115a7565b60005b828110156117f3578489015182556001820191506020850194506020810190506117ce565b86831015611810578489015161180c601f891682611719565b8355505b6001600288020188555050505b505050505050565b7f4e487b7100000000000000000000000000000000000000000000000000000000600052601160045260246000fd5b600061185f82611172565b91507fffffffffffffffffffffffffffffffffffffffffffffffffffffffffffffffff820361189157611890611825565b5b60018201905091905056fea26469706673582212206026a754e954222951f93ab188e7b3456c47e53ec0d160907c29990d34d5f71864736f6c63430008150033",
  "immutableReferences": {},
  "source": "// SPDX-License-Identifier: MIT\npragma solidity ^0.8.0;\n\ncontract TransactionInfoStorage {\n\n    address public allowedAddress;\n\n    struct TransactionInfo {\n        string networkID;\n        string chainID;\n        string blockNumber;\n        string transactionHash;\n        string blockHash;\n        string timeStamp;\n        string[] validators;\n    }\n\n    mapping(uint256 => TransactionInfo) public transactions;\n    uint256 public transactionCount;\n\n    event TransactionStored(\n        uint256 indexed transactionID,\n        string networkID,\n        string chainID,\n        string blockNumber,\n        string transactionHash,\n        string blockHash,\n        string timeStamp,\n        string[] validators\n    );\n\n    modifier onlyAllowed() {\n        require(msg.sender == allowedAddress, \"Not authorized to store information.\");\n        _;\n    }\n\n    constructor() {\n        allowedAddress = msg.sender; // Automatically set the deployer as allowedAddress\n    }\n\n    function storeTransactionInfo(\n        string memory _networkID,\n        string memory _chainID,\n        string memory _blockNumber,\n        string memory _transactionHash,\n        string memory _blockHash,\n        string memory _timeStamp,\n        string[] memory _validators\n    ) public onlyAllowed {\n        transactions[transactionCount] = TransactionInfo({\n            networkID: _networkID,\n            chainID: _chainID,\n            blockNumber: _blockNumber,\n            transactionHash: _transactionHash,\n            blockHash: _blockHash,\n            timeStamp: _timeStamp,\n            validators: _validators\n        });\n\n        emit TransactionStored(\n            transactionCount,\n            _networkID,\n            _chainID,\n            _blockNumber,\n            _transactionHash,\n            _blockHash,\n            _timeStamp,\n            _validators\n        );\n\n        transactionCount++;\n    }\n\n    function getTransactionInfo(uint256 transactionID)\n        public\n        view\n        returns (\n            string memory networkID,\n            string memory chainID,\n            string memory blockNumber,\n            string memory transactionHash,\n            string memory blockHash,\n            string memory timeStamp,\n            string[] memory validators\n        )\n    {\n        TransactionInfo memory transaction = transactions[transactionID];\n        return (\n            transaction.networkID,\n            transaction.chainID,\n            transaction.blockNumber,\n            transaction.transactionHash,\n            transaction.blockHash,\n            transaction.timeStamp,\n            transaction.validators\n        );\n    }\n\n    function updateAllowedAddress(address _newAllowedAddress) public onlyAllowed {\n        allowedAddress = _newAllowedAddress;\n    }\n}\n\n",
  "sourcePath": "/home/speedy/test-net/contracts/contracts/BlockDataStorage.sol",
  "compiler": {
    "name": "solc",
    "version": "0.8.21+commit.d9974bed.Emscripten.clang"
  },
  "schemaVersion": "3.4.16",
  "updatedAt": "2024-11-07T07:33:00.497Z",
  "networkType": "ethereum",
  "devdoc": {
    "kind": "dev",
    "methods": {},
    "version": 1
  },
  "userdoc": {
    "kind": "user",
    "methods": {},
    "version": 1
  }
}